:1000000004308A00D02C00000A108A100A118207DE
:10001000313432343334343435343634373438349C
:1000200039342A34303423340C004326412B451014
:10003000C121D42A412600010C004326412B451042
:10004000CE2A452B411020000C00A021CC20D62226
:10005000A0244E2B41264922411000010C000C0027
:100060002022C923492A45104326412B451000016F
:100070000C00A021CC20D622A0214F29D222432A35
:10008000411000010C00A021CC20D622A0244E2B30
:1000900041264922411000004930840083130008A2
:1000A000031960280130F800F701F70B5528F80B09
:1000B00054284A30F700F70B5B285E28800B522843
:1000C0000800500EF039F7000F300605770486005F
:1000D000000006146B28061008000608F700060E3C
:1000E0000F39F800080083160610861006118312D7
:1000F00086100F3083160605F03886008312061529
:100100000000061400006D207808D00006100000E2
:10011000061400006D207808CF0006100F308316FB
:10012000060586008312500EF700F030F7057708B9
:100130004F04F8007808CF00CF1B79284D1C86109B
:100140004D18861400000611000006104E0ECF0058
:100150000F30CF054F08D00061204E080F39CF0077
:10016000D000612008002830BB000C30BC000130FA
:10017000BD000630BE000610861006110F30831633
:10018000060586000610861006110F308312C9007E
:100190004C200130BA003A08033C031CD728033036
:1001A000D00061200530C9004C20BA0ACB280230AB
:1001B000D00061200530C9004C20BA013A08033C48
:1001C000031CEE283B303A07840083130008BF006D
:1001D000CD013F08CE007320BA0ADE288A110A1228
:1001E000F52C8A110A12F62C8316081283120812B3
:1001F0008316881283128812831608138312081339
:10020000831688138312881308001030D500F70175
:10021000FA01D20CD10C031C13295308F707031859
:10022000FA0A5408FA07FA0CF70CF90CF80CD50B7B
:1002300009290800F701F8014F0803105018F707C3
:10024000F70CF80CD018F707F70CF80C5019F70753
:10025000F70CF80CD019F707F70CF80C501AF70741
:10026000F70CF80CD01AF707F70CF80C501BF7072F
:10027000F70CF80CD01BF707F70CF80C08004A0B2A
:10028000422945294030CB004629CB0101304902A3
:10029000CB074B088038CC00CD014C08CE00732032
:1002A00008004808073A03195F290B3A0319642923
:1002B000063A03196C29023A031972297729013089
:1002C000C900CA003F217C29CD010130CE00732036
:1002D0000230C9004C207C290130C9000230CA001C
:1002E0003F217C29CD011030CE0073207C290130C4
:1002F000CD004808CE00732008000B08C5008B1302
:10030000831603178C170C140000000083120313CC
:10031000C51B8B1703170C087F390319D129031349
:10032000C50003170D080313C60003170F080313B6
:10033000C7004508C8005121460803178D00031364
:10034000470803178F0003130B08C8008B1383168D
:1003500003178C170C140000000083120313C81B32
:100360008B1703170C0D0E0D7F390319D1290313B9
:10037000C50003170D080313C60003170F08031366
:10038000C7004508C8005121460803178D00031314
:10039000470803178F008D0A03198F0A03137D295D
:1003A000031703130800C501A10A2108213C031803
:1003B000312A24080319E329013A0319E929033AE8
:1003C0000319EF29F429DE30831686008312860094
:1003D000F429BE308316860083128600F4297E300D
:1003E0008316860083128600221C002A06081E3906
:1003F0001E3C031DFF2922102308C500A301302A3B
:1004000006081E391E3C03192B2A06080239031D53
:100410000B2AC6011F2A06080439031D122A0130BF
:10042000C6001F2A06080839031D192A0230C60013
:100430001F2A06081039031D1F2A0330C60046086C
:10044000CF000330D0001A21240878070420F800D8
:10045000A3002214302AA40A2408033C0319A4018F
:10046000A101FE308316860083124508F8000800BB
:10047000D3217808A500A508031D422AD3217808B6
:10048000A5003B2AA50803197F2A2508303C03193B
:10049000AA012508313C031D4F2A0130AA00250876
:1004A000323C031D552A0230AA002508333C031DA7
:1004B0005B2A0330AA002508343C031D612A04305E
:1004C000AA002508353C031D672A0530AA00250827
:1004D000363C031D6D2A0630AA002508373C031D53
:1004E000732A0730AA002508383C031D792A0830F2
:1004F000AA002508393C031D7F2A0930AA000800FC
:1005000038222508233C03198E2A25082A3C031982
:100510008E2A2A30C80051212A08A60025082A3C24
:100520000319952A2508233C0319D82A38222508BF
:10053000233C0319A42A25082A3C0319A42A2A309B
:10054000C80051212A08A70025082A3C0319AB2A14
:100550002508233C0319D82A38222508233C0319EF
:10056000BA2A25082A3C0319BA2A2A30C800512180
:100570002A08A80025082A3C0319C12A2508233C7B
:100580000319D82A38222508233C0319D02A250824
:100590002A3C0319D02A2A30C80051212A08A90070
:1005A00025082A3C0319D72A2508233C0319D82AF1
:1005B0000800C601C501D2012608D1000330D400CD
:1005C000E830D30005217908C8007808C700D001B9
:1005D0002708CF005008D2002708D100D40164308A
:1005E000D30005217908CA007808C9002808CF007F
:1005F0000A30D0001A21CC017808CB00CE0129089E
:10060000CD0049084707CF004808D0004A08031822
:100610004A0FD0074B08CF074C0803184C0FD007E0
:100620004D084F07C5005008C6004E0803184E0F6E
:10063000C607A601A701A801A9012B084502031DB1
:10064000292B2C084602031D292B0130F8002B2BE7
:100650002B2B0030F8000800BA01BC01BB0114309C
:1006600003178D0000308F0003137D210130C90076
:10067000CA003F21153003178D0000308F0003138F
:100680007D210130C9000230CA003F218022D922D9
:100690007808BA003A0B5D2C1C3003178D0000302F
:1006A0008F0003137D210130C900CA003F211D3096
:1006B00003178D0000308F0003137D210130C90026
:1006C0000230CA003F2138222508233C0319712B30
:1006D00025082A3C0319712B2A30C80051212A0809
:1006E000A60038222508233C03197F2B25082A3C25
:1006F00003197F2B2A30C80051212A08A70038226D
:100700002508233C03198D2B25082A3C03198D2B22
:100710002A30C80051212A08A80038222508233C85
:1007200003199B2B25082A3C03199B2B2A30C80050
:1007300051212A08A900D2012608D1000330D40093
:10074000E830D30005217908BE007808BD002708ED
:10075000CF000A30D0001A21C0017808BF0040083D
:10076000D2003F08D100D4010A30D3000521790816
:10077000C0007808BF002808CF000A30D0001A2136
:10078000C2017808C100C4012908C3003F083D0721
:10079000C5003E08C60040080318400FC6074108C0
:1007A000C50742080318420FC60743084507BB00A8
:1007B0004608BC0044080318440FBC073C08AC00C2
:1007C0003B08AB000B08F7008B1303178D010313D5
:1007D000260803178C0083168C130C1555308D00DA
:1007E000AA308D008C148C18F32B0C11770883120F
:1007F00003138B040B08F7008B13013003178D00D4
:100800000313270803178C0083168C130C1555301F
:100810008D00AA308D008C148C180C2C0C117708CC
:10082000831203138B040B08F7008B13023003179A
:100830008D000313280803178C0083168C130C15E6
:1008400055308D00AA308D008C148C18252C0C117D
:100850007708831203138B040B08F7008B13033004
:1008600003178D000313290803178C0083168C13BC
:100870000C1555308D00AA308D008C148C183E2C30
:100880000C117708831203138B040B08F7008B13EA
:10089000043003178D000C308C0083168C130C155C
:1008A00055308D00AA308D008C148C18552C0C11ED
:1008B0007708831203138B04802C243003178D00D8
:1008C00000308F0003137D210130C9000230CA00BF
:1008D0003F21253003178D0000308F0003137D2149
:1008E00087171030C500FA30C9004C20C50B732C97
:1008F00087132E3003178D0000308F0003137D21E6
:1009000008008316081283120816831688128312B1
:10091000881683160813831208138316881383120C
:1009200088133A08C9004C20831608128312081253
:1009300083168812831288168316081383120817E9
:1009400083168813831288133A08C9004C20831633
:1009500008128312081283168812831288128316D3
:1009600008138312081783168813831288173A080E
:10097000C9004C20831608128312081683168812A9
:1009800083128812831608138312081383168813A0
:10099000831288173A08C9004C208A110A12AB2D1D
:1009A00003081F398300FF30A0002730AC000F3050
:1009B000AB00831603170908C039890003131F12FF
:1009C0009F12003003178800831287018801890174
:1009D00083130313A1012210A301A4010030831685
:1009E00087008312A0008701B328F128FF30831607
:1009F000950081130430831203178D0083168C1326
:100A00000C1483120C080313AD00F4202D080C3CC9
:100A100003190F2D2730AC000F30AB00742D0317D6
:100A20008D0183168C130C1483120C080313B6006B
:100A3000013003178D0083168C130C1483120C08DD
:100A40000313B700023003178D0083168C130C14A8
:100A500083120C080313B800033003178D008316AC
:100A60008C130C1483120C080313B900D20136083E
:100A7000D1000330D400E830D30005217908AF005D
:100A80007808AE00BB013708BA003B08D20037082F
:100A9000D100D4016430D30005217908B100780871
:100AA000B0003808CF000A30D0001A21B30178080E
:100AB000B200B5013908B40030082E07BA002F087B
:100AC000BB0031080318310FBB073208BA073308DF
:100AD0000318330FBB0734083A07AB003B08AC00E0
:100AE00035080318350FAC07F4202F3003178D009D
:100AF00000308F0003137D210130C900CA003F215F
:100B0000303003178D0000308F0003137D2101303A
:100B1000C9000230CA003F210430BA00FA30C900CF
:100B20004C20BA0B8E2D802225082A3C031D9A2DBD
:100B30002C23E32D2508233C0319A42D3822250856
:100B40002A3C03192C239A2DD922F8080319C72D02
:100B50005030BA00812C383003178D0000308F00E0
:100B600003137D210130C900CA003F21393003172A
:100B70008D0000308F0003137D2107160830BA0066
:100B8000FA30C9004C20BA0BC02D0712E32D4230B9
:100B900003178D0000308F0003137D210130C90041
:100BA0000230CA003F21433003178D0000308F0010
:100BB00003137D2187171030BA00FA30C9004C208A
:0A0BC000BA0BDD2D8713742D6300BE
:04400E00F12CFF3F53
:00000001FF
;PIC16F887
;CRC=B547  CREATED="31-mar.-21 23:43"
