:1000000001308A0000290000FF00030E8301A100D7
:100010000A08A0008A010408A2007708A300780853
:10002000A4007908A5007A08A600831383128C30F7
:100030008400801E1D288C1A2E2822088400230884
:10004000F7002408F8002508F9002608FA0020081F
:100050008A00210E8300FF0E7F0E09008A110A120A
:1000600031288C1E31281A08A8008C128A110A1215
:100070001D28831608128312081283168812831211
:1000800088128316081383120813831688138312A9
:1000900088132908AA00A90108002C3084008313C2
:1000A0000008031961280130F800F701F70B562802
:1000B000F80B55284A30F700F70B5C285F28800BB7
:1000C0005328080083160812831208128316881218
:1000D0008312881283160813831208178316881355
:1000E000831288172B08AC004D2083160812831248
:1000F0000812831688128312881683160813831237
:10010000081783168813831288132B08AC004D2020
:100110008316081283120816831688128312881613
:100120008316081383120813831688138312881307
:100130002B08AC004D208316081283120816831674
:1001400088128312881283160813831208138316E9
:100150008813831288172B08AC004D200130A900AA
:100160000800831608128312081683168812831259
:1001700088168316081383120813831688138312B4
:1001800088132B08AC004D20831608128312081226
:100190008316881283128816831608138312081791
:1001A00083168813831288132B08AC004D20831606
:1001B000081283120812831688128312881283167B
:1001C00008138312081783168813831288172B08C5
:1001D000AC004D208316081283120816831688126D
:1001E0008312881283160813831208138316881348
:1001F000831288172B08AC004D200230A90008009C
:1002000003081F3983008316031787151030031363
:10021000990000309A00A630980090308312980020
:10022000FF30A700AA01831603170908C039890007
:1002300003131F129F1200300317880083128701D7
:10024000880189018313831603138C16C03083122F
:100250008B043920280B2F295030AB00622028084E
:10026000023C031D36295030AB00B1202808033C66
:10027000031D5029290B3D2939202908023C031967
:100280003920A908031D50292A0B49295030AB00F9
:1002900062202A08023C031D50295030AB00B120D7
:0202A0006300F9
:04400E00F12CFF3F53
:00000001FF
;PIC16F887
;CRC=14CD  CREATED="02-abr.-21 19:04"
