:1000000004308A00B62C00000A108A100A118207F8
:10001000313432343334343435343634373438349C
:1000200039342A34303423340C004326412B451014
:10003000C121D42A412600010C004326412B451042
:10004000CE2A452B411020000C00A021CC20D62226
:10005000A0244E2B41264922411000010C00A02073
:10006000F6306E3D611000012029653AF237E33227
:10007000E4322000A029F437701000000C00202288
:10008000C923492A45104326412B451000010C0085
:10009000A021CC20D622A0214F29D222432A4110D0
:1000A0000001A022EE316537E434E437A03CA032F1
:1000B000733865396137E4372000A029C929D42273
:1000C000CD202021CC27D12AC520C42720000C0018
:1000D000A021CC20D622A0244E2B4126492241101B
:1000E00000004C3084008313000803198528013078
:1000F000F800F701F70B7A28F80B79284A30F70057
:10010000F70B80288328800B77280800530EF039DE
:10011000F7000F30060577048600000006149028CB
:10012000061008000608F700060E0F39F800080050
:100130008316061086100611831286100F30831660
:100140000605F0388600831206150000061400002C
:1001500092207808D30006100000061400009220B8
:100160007808D20006100F30831606058600831229
:10017000530EF700F030F70577085204F8007808BE
:10018000D200D21B9E28501C8610501886140000E6
:10019000061100000610510ED2000F30D205520891
:1001A000D300862051080F39D200D30086200800E2
:1001B0002830BE000C30BF000130C0000630C10046
:1001C0000610861006110F308316060586000610ED
:1001D000861006110F308312CC0071200130BD0053
:1001E0003D08033C031CFC280330D3008620053067
:1001F000CC007120BD0AF0280230D30086200530E3
:10020000CC007120BD013D08033C031C13293E3086
:100210003D07840083130008C200D0014208D100CA
:100220009820BD0A03298A110A12E92C8A110A12A0
:10023000EA2C1030D800F701FA01D50CD40C031CBD
:1002400027295608F7070318FA0A5708FA07FA0C7D
:10025000F70CF90CF80CD80B1D290800F701F80170
:10026000520803105318F707F70CF80CD318F707C8
:10027000F70CF80C5319F707F70CF80CD319F7071C
:10028000F70CF80C531AF707F70CF80CD31AF7070A
:10029000F70CF80C531BF707F70CF80CD31BF707F8
:1002A000F70CF80C08004D0B562959294030CE00A8
:1002B0005A29CE0101304C02CE074E088038CF00BB
:1002C000D0014F08D100982008004B08073A0319C5
:1002D00073290B3A03197829063A03198029023A3F
:1002E000031986298B290130CC00CD005321902998
:1002F000D0010130D10098200230CC00712090292B
:100300000130CC000230CD0053219029D0011030B3
:10031000D100982090290130D0004B08D1009820BE
:1003200008000B08C8008B13831603178C170C14D6
:100330000000000083120313C81B8B1703170C085F
:100340007F390319E5290313C80003170D080313A8
:10035000C90003170F080313CA004808CB00652122
:10036000490803178D0003134A0803178F0003136E
:100370000B08CB008B13831603178C170C1400008B
:10038000000083120313CB1B8B1703170C0D0E0DEC
:100390007F390319E5290313C80003170D08031358
:1003A000C90003170F080313CA004808CB006521D2
:1003B000490803178D0003134A0803178F008D0A9D
:1003C00003198F0A03139129031703130800C801A7
:1003D000A00A2008213C0318452A23080319F729FD
:1003E000013A0319FD29033A0319032A082ADE30CA
:1003F0008316860083128600082ABE308316860084
:1004000083128600082A7E308316860083128600B7
:10041000211C142A06081E391E3C031D132A211014
:100420002208C800A201442A06081E391E3C0319EE
:100430003F2A06080239031D1F2AC901332A06086C
:100440000439031D262A0130C900332A0608083959
:10045000031D2D2A0230C900332A06081039031D56
:10046000332A0330C9004908D2000330D3002E21BB
:10047000230878070420F800A2002114442AA30AC4
:100480002308033C0319A301A001FE308316860054
:1004900083124808F8000800E7217808A400A4089F
:1004A000031D562AE7217808A4004F2AA40803193F
:1004B000932A2408303C0319A9012408313C031D68
:1004C000632A0130A9002408323C031D692A023046
:1004D000A9002408333C031D6F2A0330A900240817
:1004E000343C031D752A0430A9002408353C031D43
:1004F0007B2A0530A9002408363C031D812A0630DA
:10050000A9002408373C031D872A0730A9002408C6
:10051000383C031D8D2A0830A9002408393C031DEE
:10052000932A0930A90008004C222408233C03190F
:10053000A22A24082A3C0319A22A2A30CB006521CA
:100540002908A50024082A3C0319A92A2408233CC9
:100550000319EC2A4C222408233C0319B82A240846
:100560002A3C0319B82A2A30CB0065212908A600A5
:1005700024082A3C0319BF2A2408233C0319EC2A27
:100580004C222408233C0319CE2A24082A3C0319B0
:10059000CE2A2A30CB0065212908A70024082A3C4E
:1005A0000319D52A2408233C0319EC2A4C222408D9
:1005B000233C0319E42A24082A3C0319E42A2A309C
:1005C000CB0065212908A80024082A3C0319EB2A3E
:1005D0002408233C0319EC2A0800C901C801D501ED
:1005E0002508D4000330D700E830D6001921790857
:1005F000CB007808CA00D3012608D2005308D500E2
:100600002608D400D7016430D60019217908CD001E
:100610007808CC002708D2000A30D3002E21CF0161
:100620007808CE00D1012808D0004C084A07D20033
:100630004B08D3004D0803184D0FD3074E08D207BF
:100640004F0803184F0FD30750085207C80053082C
:10065000C90051080318510FC907A501A601A70138
:10066000A8012A084802031D3D2B2B084902031D3F
:100670003D2B0130F8003F2B3F2B0030F8000800E5
:10068000BD01BF01BE01143003178D0000308F0083
:10069000031391210130CC00CD00532115300317F5
:1006A0008D0000308F00031391210130CC00023007
:1006B000CD0053219422ED227808BD003D0B712C12
:1006C0001C3003178D0000308F000313912101307F
:1006D000CC00CD0053211D3003178D0000308F005A
:1006E000031391210130CC000230CD0053214C2264
:1006F0002408233C0319852B24082A3C0319852B45
:100700002A30CB0065212908A5004C222408233C6F
:100710000319932B24082A3C0319932B2A30CB006E
:1007200065212908A6004C222408233C0319A12B8B
:1007300024082A3C0319A12B2A30CB006521290863
:10074000A7004C222408233C0319AF2B24082A3C81
:100750000319AF2B2A30CB0065212908A800D50149
:100760002508D4000330D700E830D60019217908D5
:10077000C1007808C0002608D2000A30D3002E211C
:10078000C3017808C2004308D5004208D400D7014D
:100790000A30D60019217908C3007808C20027085A
:1007A000D2000A30D3002E21C5017808C400C70149
:1007B0002808C60042084007C8004108C90043088D
:1007C0000318430FC9074408C80745080318450F15
:1007D000C90746084807BE004908BF004708031874
:1007E000470FBF073F08AB003E08AA000B08F70001
:1007F0008B1303178D010313250803178C00831631
:100800008C130C1555308D00AA308D008C148C186B
:10081000072C0C117708831203138B040B08F700C5
:100820008B13013003178D000313260803178C0068
:1008300083168C130C1555308D00AA308D008C1446
:100840008C18202C0C117708831203138B040B08CF
:10085000F7008B13023003178D00031327080317CB
:100860008C0083168C130C1555308D00AA308D002A
:100870008C148C18392C0C117708831203138B04F9
:100880000B08F7008B13033003178D0003132808A0
:1008900003178C0083168C130C1555308D00AA306D
:1008A0008D008C148C18522C0C11770883120313B2
:1008B0008B040B08F7008B13043003178D000C30EA
:1008C0008C0083168C130C1555308D00AA308D00CA
:1008D0008C148C18692C0C117708831203138B0469
:1008E000942C243003178D0000308F0003139121C6
:1008F0000130CC000230CD005321253003178D008C
:1009000000308F000313912187171030C800FA3090
:10091000CC007120C80B872C87132E3003178D0055
:1009200000308F000313912108002D0B972C2F30DE
:1009300003178D0000308F00031391212D08023C16
:100940000319A22C343003178D0000308F000313DD
:100950009121AD080319AC2C3A3003178D000030FB
:100960008F00031391218A110A12C82D03081F3921
:100970008300831603178715103003139900003086
:100980009A00A63098009030831298000730AB0090
:10099000E530AA00FF30AE00831603170908C039FE
:1009A000890003131F129F1200300317880083125F
:1009B00087018801890183130313A0012110A2017B
:1009C000A301BB010030831687008312AE008701AC
:1009D000D8281629FF30831695008113043083121E
:1009E00003178D0083168C130C1483120C08031349
:1009F000AC002C080C3C0319022D2730AB000F3043
:100A0000AA00672D03178D0183168C130C14831213
:100A10000C080313B700013003178D0083168C13E5
:100A20000C1483120C080313B800023003178D0056
:100A300083168C130C1483120C080313B9000330B3
:100A400003178D0083168C130C1483120C080313E8
:100A5000BA00D5013708D4000330D700E830D600FB
:100A600019217908B0007808AF00BE013808BD0030
:100A70003E08D5003808D400D7016430D6001921CB
:100A80007908B2007808B1003908D2000A30D300E2
:100A90002E21B4017808B300B6013A08B500310838
:100AA0002F07BD003008BE0032080318320FBE0702
:100AB0003308BD0734080318340FBE0735083D0757
:100AC000AA003E08AB0036080318360FAB073E30CD
:100AD00003178D0000308F00031391210130CC00EB
:100AE000CD0053213F3003178D0000308F000313DA
:100AF00091210130CC000230CD0053210430BD00E3
:100B0000FA30CC007120BD0B802D942224082A3CA1
:100B1000031D8C2D4023EF2D2408233C0319962D13
:100B20004C2224082A3C031940238C2DED22F8087E
:100B30000319D32D0130BB00473003178D0000305F
:100B40008F00031391210130CC00CD005321483098
:100B500003178D0000308F000313912107163B0B04
:100B6000D22D513003178D0000308F0003139121D7
:100B70000230FA004C30BC00BC080319C92D3C08F7
:100B80000C1EC02D99008C1EC32D1A08AD00952C8B
:100B9000D12D5D3003178D0000308F00031391219C
:100BA000BB01AF2DEF2D673003178D0000308F0094
:100BB000031391210130CC000230CD005321683065
:100BC00003178D0000308F00031391218717103019
:100BD000BD00FA30CC007120BD0BE92D8713672DC5
:020BE0006300B0
:04400E00F12CFF3F53
:00000001FF
;PIC16F887
;CRC=90E4  CREATED="02-abr.-21 19:02"
