:100000000A308A00A82A0000FF00030E8301A10025
:100010000A08A0008A010408A2007708A300780853
:10002000A4007908A5007A08A60003170D08031399
:10003000A70003170F080313A80003170C080313E6
:10004000A90003170E080313AA00831383128C3030
:100050008400801E2D288C1A4E2822088400230834
:10006000F7002408F8002508F9002608FA002708F8
:1000700003178D000313280803178F0003132908A3
:1000800003178C0003132A0803178E00031320089C
:100090008A00210E8300FF0E7F0E09008A110A12CA
:1000A00061280A108A100A1182073134323433343D
:1000B0003434353436343734383439342A343034FF
:1000C00023348C1E61281A08B1003108F8008C1204
:1000D0008A110A122D280C004326412B4510C121FC
:1000E000D42A412600010C004326412B4510CE2A7C
:1000F000452B411020000C00A021CC20D622A024AA
:100100004E2B41264922411000010C000C002022F8
:10011000C923492A45104326412B451000010C00F4
:10012000A021CC20D622A0214F29D222432A41103F
:1001300000010C00A024CE23D222D322A0295510E6
:100140004F28431000010C00A027D021C9274E10D2
:10015000311000010C000C2AC526D022D220D42A4E
:10016000D2200001C31EA0126610201020000C0037
:100170000C2AC526D022D220D42AD2200001C31EA8
:10018000A0126610201020000C000C00A021CC2032
:10019000D622A0244E2B41264922411000005F3078
:1001A0008400831300080319E3280130F800F701E5
:1001B000F70BD828F80BD7284A30F700F70BDE28C2
:1001C000E128800BD5280800660EF039F7000F30C3
:1001D00006057704860000000614EE2806100800C5
:1001E0000608F700060E0F39F800080083160610FF
:1001F00086100611831286100F3083160605F0381C
:10020000860083120615000006140000F02078080E
:10021000E6000610000006140000F0207808E50053
:1002200006100F308316060586008312660EF7004F
:10023000F030F70577086504F8007808E500E51B5D
:10024000FC28631C86106318861400000611000049
:100250000610640EE5000F30E5056508E600E420B1
:1002600064080F39E500E600E42008002830D100DA
:100270000C30D2000130D3000630D40006108610B6
:1002800006110F308316060586000610861006112B
:100290000F308312DF00CF200130D0005008033C24
:1002A000031C5A290330E600E4200530DF00CF208C
:1002B000D00A4E290230E600E4200530DF00CF20CE
:1002C000D0015008033C031C7129513050078400B1
:1002D00083130008D500E3015508E400F620D00A96
:1002E00061298A150A12F72A8A150A12FA2A103089
:1002F000EB00F701FA01E80CE70C031C85296908FB
:10030000F7070318FA0A6A08FA07FA0CF70CF90C4F
:10031000F80CEB0B7B290800F701F80165080310C6
:100320006618F707F70CF80CE618F707F70CF80C47
:100330006619F707F70CF80CE619F707F70CF80C35
:10034000661AF707F70CF80CE61AF707F70CF80C23
:10035000661BF707F70CF80CE61BF707F70CF80C11
:100360000800600BB429B7294030E100B829E10149
:1003700001305F02E10761088038E200E3016208B2
:10038000E400F62008005E08073A0319D1290B3A69
:100390000319D629063A0319DE29023A0319E4297A
:1003A000E9290130DF00E000B121EE29E30101304D
:1003B000E400F6200230DF00CF20EE290130DF001C
:1003C0000230E000B121EE29E3011030E400F62014
:1003D000EE290130E3005E08E400F62008000B0877
:1003E000DB008B13831603178C170C14000000001E
:1003F00083120313DB1B8B1703170C087F390319B8
:10040000432A0313DB0003170D080313DC00031753
:100410000F080313DD005B08DE00C3215C0803172F
:100420008D0003135D0803178F0003130B08DE0014
:100430008B13831603178C170C1400000000831213
:100440000313DE1B8B1703170C0D0E0D7F390319D9
:10045000432A0313DB0003170D080313DC00031703
:100460000F080313DD005B08DE00C3215C080317DF
:100470008D0003135D0803178F008D0A03198F0A7F
:100480000313EF29031703130800DB01AB0A2B0842
:10049000213C0318A32A2E080319552A013A0319EF
:1004A0005B2A033A0319612A662ADE308316860026
:1004B00083128600662ABE30831686008312860069
:1004C000662A7E3083168600831286002C1C722AD0
:1004D00006081E391E3C031D712A2C102D08DB0056
:1004E000AD01A22A06081E391E3C03199D2A0608E2
:1004F0000239031D7D2ADC01912A06080439031DF7
:10050000842A0130DC00912A06080839031D8B2A51
:100510000230DC00912A06081039031D912A0330AD
:10052000DC005C08E5000330E6008C212E0878072B
:100530005120F800AD002C14A22AAE0A2E08033C6C
:100540000319AE01AB01FE308316860083125B08EF
:10055000F800080045227808B200B208031DB42A4A
:1005600045227808B200AD2AB2080319F12A3208F0
:10057000303C0319B7013208313C031DC12A013058
:10058000B7003208323C031DC72A0230B7003208D8
:10059000333C031DCD2A0330B7003208343C031D21
:1005A000D32A0430B7003208353C031DD92A053060
:1005B000B7003208363C031DDF2A0630B700320888
:1005C000373C031DE52A0730B7003208383C031DCD
:1005D000EB2A0830B7003208393C031DF12A0930F4
:1005E000B7000800AA223208233C0319002B320866
:1005F0002A3C0319002B2A30DE00C3213708B30040
:1006000032082A3C0319072B3208233C03194A2BD2
:10061000AA223208233C0319162B32082A3C03195C
:10062000162B2A30DE00C3213708B40032082A3CDA
:1006300003191D2B3208233C03194A2BAA22320826
:10064000233C03192C2B32082A3C03192C2B2A306B
:10065000DE00C3213708B50032082A3C0319332BCA
:100660003208233C03194A2BAA223208233C0319DF
:10067000422B32082A3C0319422B2A30DE00C321C8
:100680003708B60032082A3C0319492B3208233CAC
:1006900003194A2B0800DC01DB01E8013308E700FD
:1006A0000330EA00E830E90077217908DE007808B5
:1006B000DD00E6013408E5006608E8003408E700DC
:1006C000EA016430E90077217908E0007808DF006A
:1006D0003508E5000A30E6008C21E2017808E100E7
:1006E000E4013608E3005F085D07E5005E08E60008
:1006F00060080318600FE6076108E5076208031841
:10070000620FE60763086507DB006608DC00640823
:100710000318640FDC07B301B401B501B601380852
:100720005B02031D9B2B39085C02031D9B2B0130D0
:10073000F8009D2B9D2B0030F8000800D001D2015D
:10074000D1016B3003178D0000308F000313EF21B0
:100750000130DF00E000B1216C3003178D00003064
:100760008F000313EF210130DF000230E000B121E0
:10077000F2224B237808D000500BCF2C7330031794
:100780008D0000308F000313EF210130DF00E00007
:10079000B121743003178D0000308F000313EF2157
:1007A0000130DF000230E000B121AA223208233CF0
:1007B0000319E32B32082A3C0319E32B2A30DE000D
:1007C000C3213708B300AA223208233C0319F12BB6
:1007D00032082A3C0319F12B2A30DE00C3213708E6
:1007E000B400AA223208233C0319FF2B32082A3C0A
:1007F0000319FF2B2A30DE00C3213708B500AA22D7
:100800003208233C03190D2C32082A3C03190D2C05
:100810002A30DE00C3213708B600E8013308E700BC
:100820000330EA00E830E90077217908D40078083D
:10083000D3003408E5000A30E6008C21D6017808A0
:10084000D5005608E8005508E700EA010A30E9003B
:1008500077217908D6007808D5003508E5000A30F8
:10086000E6008C21D8017808D700DA013608D900D3
:1008700055085307DB005408DC0056080318560FD0
:10088000DC075708DB0758080318580FDC0759081E
:100890005B07D1005C08D2005A0803185A0FD20730
:1008A0005208B9005108B8000B08F7008B13031762
:1008B0008D010313330803178C0083168C130C155A
:1008C00055308D00AA308D008C148C18652C0C11BD
:1008D0007708831203138B040B08F7008B13013086
:1008E00003178D000313340803178C0083168C1331
:1008F0000C1555308D00AA308D008C148C187E2C70
:100900000C117708831203138B040B08F7008B1369
:10091000023003178D000313350803178C0083166C
:100920008C130C1555308D00AA308D008C148C184A
:10093000972C0C117708831203138B040B08F70014
:100940008B13033003178D000313360803178C0035
:1009500083168C130C1555308D00AA308D008C1425
:100960008C18B02C0C117708831203138B040B081E
:10097000F7008B13043003178D000C308C008316A6
:100980008C130C1555308D00AA308D008C148C18EA
:10099000C72C0C117708831203138B04F22C7B30C5
:1009A00003178D0000308F000313EF210130DF00AB
:1009B0000230E000B1217C3003178D0000308F0041
:1009C0000313EF2187161030DB00FA30DF00CF2051
:1009D000DB0BE52C8712853003178D0000308F006C
:1009E0000313EF2108005708F80156020318FB2CE7
:1009F0005608F700072DF7010830D800D60DF70D7F
:100A0000570877020318F700F80DD80BFE2C0800E2
:100A10002030511E3030D2005008F700D01F182D62
:100A2000F709F70A7708D0002D30D200D1175114FA
:100A30005008D6006430D700F3247708D000303057
:100A40007807D3005008D6000A30D700F32430309E
:100A50007707D50030307807D4005208F7003030DF
:100A600053020319372DD114D11B51154B2D5208A8
:100A7000D3002030D200303054020319432D5114DA
:100A8000D11BD1144B2D031D5114031D4B2D5308A5
:100A9000D4002030D3005119522DD118552D5118A2
:100AA000582D5B2D5208DE00C3215308DE00C32100
:100AB0005408DE00C3215508DE00C3218A150A123E
:100AC0000B2C8E30F7005208F8005108F900FA019B
:100AD000F808031D752D7908F800F9010830F702B0
:100AE000F808031D752DF7017D2D0310F81B7C2DD3
:100AF000F90DF80DF703752DF81308005D080319BB
:100B0000EE2DE50061080319EE2DE50703188F2D82
:100B10007F30E502031CEE2D0319EE2D932D81305D
:100B2000E5070318EE2D6508F700F801F901FA0151
:100B30005E08E900E9175F08E8006008E700183080
:100B4000E500E601671CBC2D6408FA07031CAE2D06
:100B5000F90A031DAE2DF80A0319E6176308F90711
:100B6000031CB52DF80A0319E6176208DF00DF172A
:100B70005F08F8070318E617E60DF80CF90CFA0CF5
:100B8000E90CE80CE70C0310E50BA12D0130F70789
:100B90000318EE2DF81BD32DE90DFA0DF90DF80D04
:100BA000F7030319EE2DE91FE42DFA0A031DE42DC6
:100BB000F90A031DE42DF80A031DE42DF80CF90CC5
:100BC000FA0CF70A0319EE2D5E08E6006208E60645
:100BD000E61FEC2DF817F22DF813F22DF701F801AE
:100BE000F901FA0108008318F82D65308400831399
:100BF000F701F801F901FA01E501E601E701E80171
:100C000064086304620461040319362E2030E9008D
:100C10000310DD0DDE0DDF0DE00DE50DE60DE70D3A
:100C2000E80D64086802031D1F2E63086702031D98
:100C30001F2E62086602031D1F2E61086502031C39
:100C4000302E6108E5026208031C620FE6026308A9
:100C5000031C630FE7026408031C640FE80203141B
:100C6000F70DF80DF90DFA0DE90B082E6508800057
:100C7000840A66088000840A67088000840A68087D
:100C8000800008000408D5005408D7000319612E1D
:100C90005308E0005208DF005108DE005008DD0074
:100CA000E401E3012030E2008230E1007E257A0891
:100CB000D3007908D2007808D1007708D000D70B8C
:100CC000482E5308E0005208DF005108DE005008AB
:100CD000DD005D08B63CDD00FA015E08E100DE17CC
:100CE0000310DE0CDF0CE00CFA0CF90CF80CF70C1E
:100CF000DD0B702EE11F872EF709F809F909FA09B3
:100D0000F70A0319F80A0319F90A0319FA0A7A0803
:100D1000D3007908D2007808D1007708D000D31F1B
:100D20009E2ED503D516D009D109D209D309D00AF0
:100D30000319D10A0319D20A0319D30A3B30DC0084
:100D40009A30DB00CA30DA00D9010A30D7005408E3
:100D50000319D50A83145030840083135308E0002C
:100D60005208DF005108DE005008DD005C08E40096
:100D70005B08E3005A08E2005908E100F32578080F
:100D8000F708031DD62E540A57020319D62E55080C
:100D90000319D82E0F3957020319D02E0318082F24
:100DA000D51B082F551BD82E2030042F2030D505F9
:100DB000D51EE62ED5125408031DD5037708D5009D
:100DC0002D30DE00C3215508F700D5015408570225
:100DD000031DF42E7708D5002E30DE00C321550800
:100DE000F7002030D50500303030D51E042FD51245
:100DF0005408031DD5037708D5002D30DE00C3212C
:100E00005508F700D5013030F7077708DE00C32119
:100E100083105C08E0005B08DF005A08DE00590818
:100E2000DD00E401E301E2010A30E100F3257A0884
:100E3000DC007908DB007808DA007708D900D70BE6
:100E4000AA2E08000B08D1008B13831603178C17EA
:100E50000C140000000083120313D11B8B1703181E
:100E6000592F03170C087F390313D10003170D08FE
:100E70000313D20003170F080313D3005108DE0039
:100E8000C321520803178D000313530803178F0063
:100E900003130B08D4008B13831603178C170C1441
:100EA0000000000083120313D41B8B17D00B592FA3
:100EB000782F03170C0D0E0D7F390313D100031784
:100EC0000D080313D20003170F080313D3005108B2
:100ED000DE00C321520803178D00031353080317C4
:100EE0008F008D0A03198F0A03100313D00B222FD2
:020EF0000800F8
:101000000030F8001F08C33978049F000130DF006A
:101010008A11CF208A159F149F180C28BC011E0826
:10102000BB003C08D2003B08D1008A1161258A151B
:101030007A08E0007908DF007808DE007708DD0034
:101040005A30E400F530E3007930E2007D30E10011
:101050008A117E258A157A08C0007908BF007808B1
:10106000BE007708BD004008E0003F08DF003E08F2
:10107000DE003D08DD00E401E3014830E200853098
:10108000E1008A117E258A157A08D3007908D200FA
:101090007808D1007708D00083105308D700520891
:1010A000D6005108D5005008D400DB01DA01D9017F
:1010B0007E30D80080308318D906DE01DF01550864
:1010C000DD005908DD06540803194A29DC00F70041
:1010D000580803195329DC020319EF28031CAD2813
:1010E0005908E200E2175A08E1005B08E000DF015E
:1010F0000310E20CE10CE00CDF0CDC0B7728DD1FA9
:1011000084285E1467295E105C105E1657308400D8
:1011100083137C295E12DD1B97285C1CA228E20C3D
:10112000E10CE00CDF0CF70A03196229A228E21B8C
:10113000A5280310DF0DE00DE10DE20DF703031903
:10114000622997285E170F295E135508DD00DD1F01
:10115000AB28E2175B29E2135B295808DC00F70093
:101160005408DC025508E200E2175608E10057086F
:10117000E000DF010310E20CE10CE00CDF0CDC0B03
:10118000B928DD1FC628DE146729DE105C10DE16C4
:101190005B30840083137C29DE12DD1BD9285C1CA4
:1011A000E428E20CE10CE00CDF0CF70A03196229D9
:1011B000E428E21BE7280310DF0DE00DE10DE20D4E
:1011C000F70303196229D928DE170F29DE135908FE
:1011D000DD00DD1FED28E2175B29E2135B295908CA
:1011E000E200E2175A08E1005B08E000DD1FFC287E
:1011F000E2135E1567295E11DF015C105730840031
:1012000083137C29DD1B25295508DD005C1C0F2973
:10121000E20CE10CE00CDF0CF70A03196229DF1F76
:101220002029E00A031D2029E10A031D2029E20AE2
:10123000031D2029E20CE10CE00CF70A03196229D6
:101240005E1BA428DE1BE62844298030E206E21F4C
:101250002D2967295908DD003A295508DD00E208E3
:10126000031D3A29E108031D3A29E008031D3A2924
:10127000F7015B29E21B44290310DF0DE00DE10DAE
:10128000E20DF70B3A296229DD1F4829E2175B2995
:10129000E2135B295808F7005908E2005A08E100F8
:1012A0005B08E0005B295408F7005508E200560887
:1012B000E1005708E0006208F8006108F9006008E2
:1012C000FA009A29F701F801F901FA019A29DF01D8
:1012D000E009E109E209DF09DF0A031D7529E00AD7
:1012E000031D7529E10A0319E20A5E188328DE1836
:1012F000C5285E19FB282A290008E007031C862957
:10130000E10A031D8629E20A03195C14840300081C
:10131000E107031C8E29E20A03195C148403000808
:10132000801F803AE20703185C145E1A8A28DE1ACE
:10133000CC2802297A08D3007908D2007808D10095
:101340007708D0008E30F7005008F7025108F900F6
:101350005208F800F917F7080319B9290310F9081A
:10136000031DB529F8080319B929F90CF80CF70B76
:10137000AE29D11FC029F809F909F80A0319F90A99
:10138000D2017808D1008A1161258A157A08D40023
:101390007908D3007808D2007708D100D801D701A6
:1013A0004830D6008530D50051080319992ADD0050
:1013B00055080319992ADD02031CE3297F30DD0754
:1013C0000318992AE9298130DD02031C992A03199F
:1013D000992A5D08F700F801F901FA01DC015208C9
:1013E000DB00DB175308DA005408D9001930DD00A0
:1013F0005808D90203180C2A0130DA0203180C2A03
:10140000DB0203180C2ADC0203180C2ADC0ADB0AB4
:10141000DA0A5808D9073E2A5708DA020318272A99
:101420000130DB020318272ADC020318272ADC0A12
:10143000DB0A5708DA075808D907031C3E2ADA0ADC
:10144000031D3E2ADB0A031D3E2ADC0A3E2A5608FB
:101450008038DB0203183D2A0130DC0203183D2AE4
:10146000DC0A56088038DB075708DA07031C1B2AFA
:10147000DB0A031D1B2ADC0A1B2A7A14DD0B412A16
:101480004C2A0310D90DDA0DDB0DDC0D0310FA0D1B
:10149000F90DF80DDE0DF8295E1C542A0310F80C26
:1014A000F90CFA0CDE0C572AF7030319992ADE1BF4
:1014B000802A0310D90DDA0DDB0DDC0D5808D90296
:1014C00003186C2A0130DA0203186C2ADB020318B5
:1014D0006C2ADC02031C8F2A5708DA020318772AC9
:1014E0000130DB020318772ADC02031C8F2A56081E
:1014F0008038DB020318802A0130DC02031C8F2AAB
:10150000FA0A031D8F2AF90A031D8F2AF80A031D00
:101510008F2AF70A0319992AF80CF90CFA0C5208C9
:10152000DD005608DD06DD1F972AF8179D2AF813FF
:101530009D2AF701F801F901FA017A08C00079083B
:10154000BF007808BE007708BD000130C107080061
:1015500003081F3983008316031787151030031300
:10156000990000309A00A6309800903083129800BD
:101570002730B9000F30B800C001BF01BE01BD0166
:10158000C101FF30C200831603170908C039890062
:1015900003131F129F120030031788008312870164
:1015A0008801890183130313AB012C10AD01AE0137
:1015B000AF01B00101308316850003170908C03957
:1015C000890003131F129F12013003178800831232
:1015D00003131F179F1783169F1383121F140030C6
:1015E000831687008312C20087018A1136298A1563
:1015F0008A1174298A15FF308316950081130430EF
:10160000831203178D0083168C130C1483120C089D
:101610000313BA003A080C3C0319132B2730B90006
:101620000F30B8007E2B03178D0183168C130C141A
:1016300083120C080313CB00013003178D008316AF
:101640008C130C1483120C080313CC000230031704
:101650008D0083168C130C1483120C080313CD0019
:10166000033003178D0083168C130C1483120C089F
:101670000313CE00E8014B08E7000330EA00E8302E
:10168000E9008A1177218A157908C4007808C30017
:10169000D1014C08D0005108E8005008E700EA01E9
:1016A0006430E9008A1177218A157908C600780824
:1016B000C5004D08E5000A30E6008A118C218A1524
:1016C000C8017808C700CA014E08C9004508430789
:1016D000D0004408D10046080318460FD107470838
:1016E000D00748080318480FD10749085007B80029
:1016F0005108B9004A0803184A0FB9078630031782
:101700008D0000308F008A110313EF218A150130FC
:10171000DF00E0008A11B1218A15873003178D00A0
:1017200000308F008A110313EF218A150130DF008A
:101730000230E0008A11B1218A156430DF008A117D
:10174000CF208A158A11F2228A1532082A3C031DFD
:10175000AD2B8A119E238A154A2D3208233C03198A
:10176000BC2B8A11AA228A1532082A3C031DBB2BE6
:101770008A119E238A15AD2B8A114B238A15F808EE
:101780000319272D8F3003178D0000308F008A1129
:101790000313EF218A150130DF00E0008A11B12127
:1017A0008A15903003178D0000308F008A110313C3
:1017B000EF218A150716C830DF008A11CF208A155D
:1017C0000712993003178D0000308F008A11031320
:1017D000EF218A150130DF00E0008A11B1218A155E
:1017E0009A3003178D0000308F008A110313EF2108
:1017F0008A158A11AA228A153708CF000130DF0026
:101800000230E0008A11B1218A154F08D00018304B
:10181000D1008A11082D8A15C830DF008A11CF2027
:101820008A154F08013A03191C2C033A0319502C4E
:10183000013A0319C92C252D4F080C1E1D2C9900A7
:10184000CF0183168C16C03083128B04A33003178C
:101850008D0000308F008A110313EF218A150130AB
:10186000DF00E0008A11B1218A15A43003178D0032
:1018700000308F008A110313EF218A150130DF0039
:101880000230E0008A11B1218A152F2CAA300317EB
:101890008D0000308F008A110313EF218A15252D4A
:1018A0004F080C1E512C9900CF01CF08031DBF2CEF
:1018B00000200130DF00E0008A11B1218A15AB3031
:1018C00003178D0000308F008A110313EF218A1552
:1018D0000230DF00E0008A11B1218A154330DE00BA
:1018E0008A11C3218A153D30DE008A11C3218A1571
:1018F0002030DE008A11C3218A1589308400400817
:10190000D3003F08D2003E08D1003D08D00002308D
:10191000D4008A1142268A15B43003178D00003096
:101920008F00031404300313D0008A1122278A1574
:101930004008E0003F08DF003E08DE003D08DD0013
:10194000E401E3014830E2008530E1008A117E25A0
:101950008A157A08C0007908BF007808BE007708A9
:10196000BD003D080C1EB22C99008A11AA228A15CE
:101970003708CF004F080C1EBB2C9900552CB730F0
:1019800003178D0000308F008A110313EF218A1591
:10199000252D4F080C1ECA2C9900CF01CF08031D1E
:1019A0001C2D0020C1010130DF00E0008A11B121AF
:1019B0008A15B83003178D0000308F008A11031389
:1019C000EF218A150230DF00E0008A11B1218A156B
:1019D0004330DE008A11C3218A153D30DE008A11B2
:1019E000C3218A152030DE008A11C3218A1589306F
:1019F00084004008D3003F08D2003E08D1003D08D3
:101A0000D0000230D4008A1142268A15C130031753
:101A10008D0000308F00031404300313D0008A11AE
:101A200022278A153D080C1E132D9900C830DF00AF
:101A30008A11CF208A15CE2CC43003178D000030B8
:101A40008F008A110313EF218A15E12B4A2DC5302F
:101A500003178D0000308F008A110313EF218A15C0
:101A60000130DF00E0008A11B1218A15C63003176A
:101A70008D0000308F008A110313EF218A1587161D
:101A80000230D000FA30DF008A11CF208A15D00B47
:081A9000422D87127E2B63003A
:04400E00F12CFF3F53
:00000001FF
;PIC16F887
;CRC=6C9A  CREATED="03-oct.-21 01:16"
