:1000000004308A00B32C00000C104F28C3244F2763
:10001000A01269004537F6346137E4373D10A51862
:1000200044000C000C2AC526D022D220D42AD2208B
:100030000001C31EA0126610201020000C000C2A24
:10004000C526D022D220D42AD2200001C31EA0125D
:100050006610201020000C00353084008313000847
:10006000031940280130F800F701F70B3528F80B89
:1000700034284A30F700F70B3B283E28800B322803
:1000800008003C0EF039F7000F30080577048800AF
:10009000000008144B28081008000808F700080E94
:1000A0000F39F80008008316081088100811831211
:1000B00088100F3083160805F03888008312081561
:1000C0000000081400004D207808BC000810000053
:1000D000081400004D207808BB0008100F3083166C
:1000E0000805880083123C0EF700F030F70577080A
:1000F0003B04F8007808BB00BB1B5928391C88104A
:100100003918881400000811000008103A0EBB00CE
:100110000F30BB053B08BC0041203A080F39BB003B
:10012000BC00412008002830A8000C30A900013094
:10013000AA000630AB000810881008110F30831693
:10014000080588000810881008110F308312B500C8
:100150002C200130A7002708033C031CB7280330DC
:10016000BC0041200530B5002C20A70AAB28023086
:10017000BC0041200530B5002C20A7012708033C16
:10018000031CCE2828302707840083130008AC0006
:10019000B9012C08BA005320A70ABE288A110A12F6
:1001A000D72C360BD428D7284030B700D828B70131
:1001B00001303502B70737088038B800B901380870
:1001C000BA00532008003408073A0319F1280B3A03
:1001D0000319F628063A0319FE28023A03190429DE
:1001E00009290130B500B600D1200E29B90101302E
:1001F000BA0053200230B5002C200E290130B50082
:100200000230B600D1200E29B9011030BA005320B7
:100210000E290130B9003408BA00532008000B0839
:10022000A8008B13831603178C170C140000000012
:1002300083120313A81B8B170318462903170C08F6
:100240007F390313A80003170D080313A900031730
:100250000F080313AA002808B400E3202908031795
:100260008D0003132A0803178F0003130B08AB003C
:100270008B13831603178C170C14000000008312D5
:100280000313AB1B8B17A70B4629652903170C0D0E
:100290000E0D7F390313A80003170D080313A900DF
:1002A00003170F080313AA002808B400E320290845
:1002B00003178D0003132A0803178F008D0A0319F3
:1002C0008F0A03100313A70B0F2908002E08F8014B
:1002D0002D0203186E292D08F7007A29F70108303E
:1002E000AF00AD0DF70D2E0877020318F700F80DDB
:1002F000AF0B712908002030281E3030A9002708D4
:10030000F700A71F8B29F709F70A7708A7002D30F8
:10031000A900A81728142708AD006430AE00662194
:100320007708A70030307807AA002708AD000A3008
:10033000AE00662130307707AC0030307807AB0074
:100340002908F70030302A020319AA29A814A81B8B
:100350002815BE292908AA002030A90030302B0218
:100360000319B6292814A81BA814BE29031D281494
:10037000031DBE292A08AB002030AA002819C52970
:10038000A818C8292818CB29CE292908B400E320A9
:100390002A08B400E3202B08B400E3202C08B400A2
:1003A000E32008000B08A7008B13831603178C1794
:1003B0000C140000000083120313A71B8B170317F4
:1003C0000C087F390319262A0313A70003170D0809
:1003D0000313A80003170F080313A9002708B4008C
:1003E000E320280803178D000313290803178F0043
:1003F00003130B08AA008B13831603178C170C1416
:100400000000000083120313AA1B8B1703170C0DA7
:100410000E0D7F390319262A0313A70003170D08B1
:100420000313A80003170F080313A9002708B4003B
:10043000E320280803178D000313290803178F00F2
:100440008D0A03198F0A0313D22903170313080017
:100450008E30F7002808F8002708F900FA01F8089C
:10046000031D3C2A7908F800F9010830F702F80862
:10047000031D3C2AF701442A0310F81B432AF90DF7
:10048000F80DF7033C2AF8130800270803190A2B74
:10049000B3002B0803190A2BB302031C542A7F3024
:1004A000B30703180A2B5A2A8130B302031C0A2B04
:1004B00003190A2B3308F700F801F901FA01B20118
:1004C0002808B100B1172908B0002A08AF00193078
:1004D000B3002E08AF0203187D2A0130B0020318C2
:1004E0007D2AB10203187D2AB20203187D2AB20ABE
:1004F000B10AB00A2E08AF07AF2A2D08B0020318C0
:10050000982A0130B1020318982AB2020318982AD7
:10051000B20AB10A2D08B0072E08AF07031CAF2A94
:10052000B00A031DAF2AB10A031DAF2AB20AAF2ACF
:100530002C088038B1020318AE2A0130B202031829
:10054000AE2AB20A2C088038B1072D08B007031C68
:100550008C2AB10A031D8C2AB20A8C2A7A14B30B96
:10056000B22ABD2A0310AF0DB00DB10DB20D0310AC
:10057000FA0DF90DF80DB40D692A341CC52A0310C3
:10058000F80CF90CFA0CB40CC82AF70303190A2B5F
:10059000B41BF12A0310AF0DB00DB10DB20D2E0832
:1005A000AF020318DD2A0130B0020318DD2AB102C0
:1005B0000318DD2AB202031C002B2D08B002031819
:1005C000E82A0130B1020318E82AB202031C002B0A
:1005D0002C088038B1020318F12A0130B202031C42
:1005E000002BFA0A031D002BF90A031D002BF80A41
:1005F000031D002BF70A03190A2BF80CF90CFA0C4F
:100600002808B3002C08B306B31F082BF8170E2BCD
:10061000F8130E2BF701F801F901FA018A110A12F9
:10062000532D8318162B3C3084008313F701F801F7
:10063000F901FA01BC01BD01BE01BF013B083A044A
:10064000390438040319542B2030C0000310B40DB2
:10065000B50DB60DB70DBC0DBD0DBE0DBF0D3B08E4
:100660003F02031D3D2B3A083E02031D3D2B390876
:100670003D02031D3D2B38083C02031C4E2B38085D
:10068000BC023908031C390FBD023A08031C3A0F9B
:10069000BE023B08031C3B0FBF020314F70DF80D0D
:1006A000F90DFA0DC00B262B3C088000840A3D088A
:1006B0008000840A3E088000840A3F088000080009
:1006C0000408AC002B08AE000319F22B2A08B7006F
:1006D0002908B6002808B5002708B400BB01BA01F4
:1006E0002030B9008230B80034080319E42BBC0074
:1006F00038080319E42BBC070318852B7F30BC0294
:10070000031CE42B0319E42B892B8130BC0703184D
:10071000E42B3C08F700F801F901FA013508C000A4
:10072000C0173608BF003708BE001830BC00BD0136
:100730003E1CB22B3B08FA07031CA42BF90A031D2D
:10074000A42BF80A0319BD173A08F907031CAB2BB1
:10075000F80A0319BD173908B600B6173608F807A6
:100760000318BD17BD0DF80CF90CFA0CC00CBF0C2A
:10077000BE0C0310BC0B972B0130F7070318E42BBA
:10078000F81BC92BC00DFA0DF90DF80DF70303196D
:10079000E42BC01FDA2BFA0A031DDA2BF90A031D1A
:1007A000DA2BF80A031DDA2BF80CF90CFA0CF70A0D
:1007B0000319E42B3508BD003908BD06BD1FE22B27
:1007C000F817E82BF813E82BF701F801F901FA0103
:1007D0007A08AA007908A9007808A8007708A70075
:1007E000AE0B662B2A08B7002908B6002808B5000A
:1007F0002708B4003408B63CB400FA013508B80044
:10080000B5170310B50CB60CB70CFA0CF90CF80CB4
:10081000F70CB40B012CB81F182CF709F809F909CB
:10082000FA09F70A0319F80A0319F90A0319FA0A67
:100830007A08AA007908A9007808A8007708A70014
:10084000AA1F2F2CAC03AC16A709A809A909AA094D
:10085000A70A0319A80A0319A90A0319AA0A3B300F
:10086000B3009A30B200CA30B100B0010A30AE0015
:100870002B080319AC0A83142730840083132A0839
:10088000B7002908B6002808B5002708B4003308C7
:10089000BB003208BA003108B9003008B800112393
:1008A0007808F708031D672C2B0A2E020319672C02
:1008B0002C080319692C0F392E020319612C031817
:1008C000992CAC1B992C2C1B692C2030952C20309A
:1008D000AC05AC1E772CAC122B08031DAC037708BB
:1008E000AC002D30B400E3202C08F700AC012B083D
:1008F0002E02031D852C7708AC002E30B400E320B7
:100900002C08F7002030AC0500303030AC1E952CA0
:10091000AC122B08031DAC037708AC002D30B400DB
:10092000E3202C08F700AC013030F7077708B4005B
:10093000E32083103308B7003208B6003108B50051
:100940003008B400BB01BA01B9010A30B800112364
:100950007A08B3007908B2007808B1007708B000CF
:10096000AE0B3B2C080003081F39830083160317C6
:10097000871510300313990000309A00A6309800B4
:10098000903083129800FF30A600831603170908E1
:10099000C039890003131F129F120030031788000B
:1009A00083128701880189018313031393288C1E06
:1009B000D72C1A08A0002008013A0319E62C033AA4
:1009C00003192F2D013A0319AF2D132EA611260856
:1009D0008316870083128715A50125080A3C031C8E
:1009E000212D25080C1EF22C99000130B500B6000F
:1009F000D120043003178D0000308F000310093020
:100A00000313A7000F212008A7001830A8007B219E
:100A10000130B5000230B600D1200A3003178D0036
:100A200000308F0003100A300313A7000F212508A0
:100A3000A7001830A8007B21C830B5002C20A50ADB
:100A4000ED2CA6112608831687008312871111301A
:100A500003178D0000308F000313D221132EA00145
:100A6000A611260883168700831287158C1E362D43
:100A70001A08A801A70028227A08A4007908A30070
:100A80007808A2007708A1002408AA002308A9007A
:100A90002208A8002108A700AE01AD014830AC0033
:100AA0008530AB00452A7A08A4007908A3007808AD
:100AB000A2007708A100A008031D922D0130B50007
:100AC000B600D120123003178D0000308F000313C1
:100AD000D2210230B500B600D1204330B400E3206B
:100AE0003D30B400E3202030B400E320893084009E
:100AF0002408AA002308A9002208A8002108A700AA
:100B00000230AB0060231B3003178D0000308F00D4
:100B1000031404300313A7000F218C1E8D2D1A0817
:100B2000A0005B2D26122608831687008312071665
:100B3000A611260883168700831287112830B50076
:100B40002C202612260883168700831207121E30D7
:100B500003178D0000308F000313D221132EA00144
:100B6000A61126088316870083128715A008031D87
:100B7000F72D8C1EB92D1A08A801A70028227A0883
:100B8000A4007908A3007808A2007708A10001302A
:100B9000B500B600D1201F3003178D0000308F0044
:100BA0000313D2210230B500B600D1204330B40087
:100BB000E3203D30B400E3202030B400E32089304E
:100BC00084002408AA002308A9002208A8002108FC
:100BD000A7000230AB006023283003178D000030DF
:100BE0008F00031404300313A7000F21B62D261223
:100BF00026088316870083120716A6112608831677
:100C00008700831287112830B5002C202612260871
:100C100083168700831207122B3003178D000030D4
:0A0C20008F000313D221D62C6300CD
:04400E00E12FFF3F60
:00000001FF
;PIC16F887
;CRC=4E4B  CREATED="01-oct.-21 19:14"
